{
    "_format": "hh-sol-artifact-1",
    "contractName": "GoldenTime",
    "sourceName": "contracts/goldentime.sol",
    "abi": [
        {
            "inputs": [],
            "stateMutability": "nonpayable",
            "type": "constructor"
        },
        {
            "anonymous": false,
            "inputs": [
                {
                    "indexed": true,
                    "internalType": "address",
                    "name": "owner",
                    "type": "address"
                },
                {
                    "indexed": true,
                    "internalType": "address",
                    "name": "approved",
                    "type": "address"
                },
                {
                    "indexed": true,
                    "internalType": "uint256",
                    "name": "tokenId",
                    "type": "uint256"
                }
            ],
            "name": "Approval",
            "type": "event"
        },
        {
            "anonymous": false,
            "inputs": [
                {
                    "indexed": true,
                    "internalType": "address",
                    "name": "owner",
                    "type": "address"
                },
                {
                    "indexed": true,
                    "internalType": "address",
                    "name": "operator",
                    "type": "address"
                },
                {
                    "indexed": false,
                    "internalType": "bool",
                    "name": "approved",
                    "type": "bool"
                }
            ],
            "name": "ApprovalForAll",
            "type": "event"
        },
        {
            "anonymous": false,
            "inputs": [
                {
                    "indexed": false,
                    "internalType": "uint256",
                    "name": "_fromTokenId",
                    "type": "uint256"
                },
                {
                    "indexed": false,
                    "internalType": "uint256",
                    "name": "_toTokenId",
                    "type": "uint256"
                }
            ],
            "name": "BatchMetadataUpdate",
            "type": "event"
        },
        {
            "anonymous": false,
            "inputs": [
                {
                    "indexed": false,
                    "internalType": "uint256",
                    "name": "tokenId",
                    "type": "uint256"
                },
                {
                    "indexed": false,
                    "internalType": "address",
                    "name": "_hospital",
                    "type": "address"
                }
            ],
            "name": "Choice",
            "type": "event"
        },
        {
            "anonymous": false,
            "inputs": [
                {
                    "indexed": false,
                    "internalType": "uint256",
                    "name": "level",
                    "type": "uint256"
                },
                {
                    "indexed": false,
                    "internalType": "uint256",
                    "name": "age",
                    "type": "uint256"
                },
                {
                    "indexed": false,
                    "internalType": "uint256",
                    "name": "gender",
                    "type": "uint256"
                },
                {
                    "indexed": false,
                    "internalType": "string",
                    "name": "state",
                    "type": "string"
                },
                {
                    "indexed": false,
                    "internalType": "uint256",
                    "name": "timestamp",
                    "type": "uint256"
                }
            ],
            "name": "Emergency",
            "type": "event"
        },
        {
            "anonymous": false,
            "inputs": [
                {
                    "indexed": false,
                    "internalType": "uint256",
                    "name": "tokenId",
                    "type": "uint256"
                },
                {
                    "indexed": false,
                    "internalType": "address",
                    "name": "_hospital",
                    "type": "address"
                },
                {
                    "indexed": false,
                    "internalType": "bool",
                    "name": "state",
                    "type": "bool"
                },
                {
                    "indexed": false,
                    "internalType": "string",
                    "name": "reason",
                    "type": "string"
                }
            ],
            "name": "HospitalList",
            "type": "event"
        },
        {
            "anonymous": false,
            "inputs": [
                {
                    "indexed": false,
                    "internalType": "uint256",
                    "name": "_tokenId",
                    "type": "uint256"
                }
            ],
            "name": "MetadataUpdate",
            "type": "event"
        },
        {
            "anonymous": false,
            "inputs": [
                {
                    "indexed": false,
                    "internalType": "string",
                    "name": "toInfo",
                    "type": "string"
                },
                {
                    "indexed": false,
                    "internalType": "uint256",
                    "name": "tokenId",
                    "type": "uint256"
                }
            ],
            "name": "Minted",
            "type": "event"
        },
        {
            "anonymous": false,
            "inputs": [
                {
                    "indexed": true,
                    "internalType": "address",
                    "name": "previousOwner",
                    "type": "address"
                },
                {
                    "indexed": true,
                    "internalType": "address",
                    "name": "newOwner",
                    "type": "address"
                }
            ],
            "name": "OwnershipTransferred",
            "type": "event"
        },
        {
            "anonymous": false,
            "inputs": [
                {
                    "indexed": true,
                    "internalType": "address",
                    "name": "from",
                    "type": "address"
                },
                {
                    "indexed": true,
                    "internalType": "address",
                    "name": "to",
                    "type": "address"
                },
                {
                    "indexed": true,
                    "internalType": "uint256",
                    "name": "tokenId",
                    "type": "uint256"
                }
            ],
            "name": "Transfer",
            "type": "event"
        },
        {
            "inputs": [
                {
                    "internalType": "address",
                    "name": "to",
                    "type": "address"
                },
                {
                    "internalType": "uint256",
                    "name": "tokenId",
                    "type": "uint256"
                }
            ],
            "name": "approve",
            "outputs": [],
            "stateMutability": "nonpayable",
            "type": "function"
        },
        {
            "inputs": [
                {
                    "internalType": "address",
                    "name": "owner",
                    "type": "address"
                }
            ],
            "name": "balanceOf",
            "outputs": [
                {
                    "internalType": "uint256",
                    "name": "",
                    "type": "uint256"
                }
            ],
            "stateMutability": "view",
            "type": "function"
        },
        {
            "inputs": [
                {
                    "internalType": "address",
                    "name": "_amb",
                    "type": "address"
                }
            ],
            "name": "checkAmbAddress",
            "outputs": [
                {
                    "internalType": "bool",
                    "name": "",
                    "type": "bool"
                }
            ],
            "stateMutability": "view",
            "type": "function"
        },
        {
            "inputs": [
                {
                    "internalType": "address",
                    "name": "_hospital",
                    "type": "address"
                }
            ],
            "name": "checkHospitalAddress",
            "outputs": [
                {
                    "internalType": "bool",
                    "name": "",
                    "type": "bool"
                }
            ],
            "stateMutability": "view",
            "type": "function"
        },
        {
            "inputs": [
                {
                    "internalType": "uint256",
                    "name": "tokenId",
                    "type": "uint256"
                },
                {
                    "internalType": "address",
                    "name": "_hospital",
                    "type": "address"
                }
            ],
            "name": "choice",
            "outputs": [],
            "stateMutability": "nonpayable",
            "type": "function"
        },
        {
            "inputs": [
                {
                    "internalType": "uint256",
                    "name": "tokenId",
                    "type": "uint256"
                }
            ],
            "name": "getApproved",
            "outputs": [
                {
                    "internalType": "address",
                    "name": "",
                    "type": "address"
                }
            ],
            "stateMutability": "view",
            "type": "function"
        },
        {
            "inputs": [
                {
                    "internalType": "uint256",
                    "name": "key",
                    "type": "uint256"
                }
            ],
            "name": "getHospitalList",
            "outputs": [
                {
                    "internalType": "address[]",
                    "name": "",
                    "type": "address[]"
                }
            ],
            "stateMutability": "view",
            "type": "function"
        },
        {
            "inputs": [
                {
                    "internalType": "address",
                    "name": "owner",
                    "type": "address"
                },
                {
                    "internalType": "address",
                    "name": "operator",
                    "type": "address"
                }
            ],
            "name": "isApprovedForAll",
            "outputs": [
                {
                    "internalType": "bool",
                    "name": "",
                    "type": "bool"
                }
            ],
            "stateMutability": "view",
            "type": "function"
        },
        {
            "inputs": [
                {
                    "internalType": "string",
                    "name": "toInfo",
                    "type": "string"
                }
            ],
            "name": "mint",
            "outputs": [],
            "stateMutability": "nonpayable",
            "type": "function"
        },
        {
            "inputs": [],
            "name": "name",
            "outputs": [
                {
                    "internalType": "string",
                    "name": "",
                    "type": "string"
                }
            ],
            "stateMutability": "view",
            "type": "function"
        },
        {
            "inputs": [
                {
                    "internalType": "uint256",
                    "name": "level",
                    "type": "uint256"
                },
                {
                    "internalType": "uint256",
                    "name": "age",
                    "type": "uint256"
                },
                {
                    "internalType": "uint256",
                    "name": "gender",
                    "type": "uint256"
                },
                {
                    "internalType": "string",
                    "name": "state",
                    "type": "string"
                }
            ],
            "name": "occurs",
            "outputs": [],
            "stateMutability": "nonpayable",
            "type": "function"
        },
        {
            "inputs": [],
            "name": "owner",
            "outputs": [
                {
                    "internalType": "address",
                    "name": "",
                    "type": "address"
                }
            ],
            "stateMutability": "view",
            "type": "function"
        },
        {
            "inputs": [
                {
                    "internalType": "uint256",
                    "name": "tokenId",
                    "type": "uint256"
                }
            ],
            "name": "ownerOf",
            "outputs": [
                {
                    "internalType": "address",
                    "name": "",
                    "type": "address"
                }
            ],
            "stateMutability": "view",
            "type": "function"
        },
        {
            "inputs": [
                {
                    "internalType": "uint256",
                    "name": "tokenId",
                    "type": "uint256"
                },
                {
                    "internalType": "address",
                    "name": "_hospital",
                    "type": "address"
                }
            ],
            "name": "received",
            "outputs": [],
            "stateMutability": "nonpayable",
            "type": "function"
        },
        {
            "inputs": [
                {
                    "internalType": "uint256",
                    "name": "tokenId",
                    "type": "uint256"
                },
                {
                    "internalType": "address",
                    "name": "_hospital",
                    "type": "address"
                },
                {
                    "internalType": "string",
                    "name": "reason",
                    "type": "string"
                }
            ],
            "name": "reject",
            "outputs": [],
            "stateMutability": "nonpayable",
            "type": "function"
        },
        {
            "inputs": [],
            "name": "renounceOwnership",
            "outputs": [],
            "stateMutability": "nonpayable",
            "type": "function"
        },
        {
            "inputs": [
                {
                    "internalType": "address",
                    "name": "from",
                    "type": "address"
                },
                {
                    "internalType": "address",
                    "name": "to",
                    "type": "address"
                },
                {
                    "internalType": "uint256",
                    "name": "tokenId",
                    "type": "uint256"
                }
            ],
            "name": "safeTransferFrom",
            "outputs": [],
            "stateMutability": "nonpayable",
            "type": "function"
        },
        {
            "inputs": [
                {
                    "internalType": "address",
                    "name": "from",
                    "type": "address"
                },
                {
                    "internalType": "address",
                    "name": "to",
                    "type": "address"
                },
                {
                    "internalType": "uint256",
                    "name": "tokenId",
                    "type": "uint256"
                },
                {
                    "internalType": "bytes",
                    "name": "data",
                    "type": "bytes"
                }
            ],
            "name": "safeTransferFrom",
            "outputs": [],
            "stateMutability": "nonpayable",
            "type": "function"
        },
        {
            "inputs": [
                {
                    "internalType": "address",
                    "name": "_amb",
                    "type": "address"
                }
            ],
            "name": "setAmb",
            "outputs": [],
            "stateMutability": "nonpayable",
            "type": "function"
        },
        {
            "inputs": [
                {
                    "internalType": "address",
                    "name": "operator",
                    "type": "address"
                },
                {
                    "internalType": "bool",
                    "name": "approved",
                    "type": "bool"
                }
            ],
            "name": "setApprovalForAll",
            "outputs": [],
            "stateMutability": "nonpayable",
            "type": "function"
        },
        {
            "inputs": [
                {
                    "internalType": "address",
                    "name": "_hospital",
                    "type": "address"
                }
            ],
            "name": "setHospital",
            "outputs": [],
            "stateMutability": "nonpayable",
            "type": "function"
        },
        {
            "inputs": [
                {
                    "internalType": "bytes4",
                    "name": "interfaceId",
                    "type": "bytes4"
                }
            ],
            "name": "supportsInterface",
            "outputs": [
                {
                    "internalType": "bool",
                    "name": "",
                    "type": "bool"
                }
            ],
            "stateMutability": "view",
            "type": "function"
        },
        {
            "inputs": [],
            "name": "symbol",
            "outputs": [
                {
                    "internalType": "string",
                    "name": "",
                    "type": "string"
                }
            ],
            "stateMutability": "view",
            "type": "function"
        },
        {
            "inputs": [
                {
                    "internalType": "uint256",
                    "name": "tokenId",
                    "type": "uint256"
                }
            ],
            "name": "tokenURI",
            "outputs": [
                {
                    "internalType": "string",
                    "name": "",
                    "type": "string"
                }
            ],
            "stateMutability": "view",
            "type": "function"
        },
        {
            "inputs": [
                {
                    "internalType": "address",
                    "name": "from",
                    "type": "address"
                },
                {
                    "internalType": "address",
                    "name": "to",
                    "type": "address"
                },
                {
                    "internalType": "uint256",
                    "name": "tokenId",
                    "type": "uint256"
                }
            ],
            "name": "transferFrom",
            "outputs": [],
            "stateMutability": "nonpayable",
            "type": "function"
        },
        {
            "inputs": [
                {
                    "internalType": "address",
                    "name": "newOwner",
                    "type": "address"
                }
            ],
            "name": "transferOwnership",
            "outputs": [],
            "stateMutability": "nonpayable",
            "type": "function"
        }
    ],
    "bytecode": "0x608060405260006008553480156200001657600080fd5b506040518060400160405280600e81526020017f416d62756c616e6365546f6b656e0000000000000000000000000000000000008152506040518060400160405280600481526020017f414d42540000000000000000000000000000000000000000000000000000000081525081600090805190602001906200009b929190620001ab565b508060019080519060200190620000b4929190620001ab565b505050620000d7620000cb620000dd60201b60201c565b620000e560201b60201c565b620002c0565b600033905090565b6000600760009054906101000a900473ffffffffffffffffffffffffffffffffffffffff16905081600760006101000a81548173ffffffffffffffffffffffffffffffffffffffff021916908373ffffffffffffffffffffffffffffffffffffffff1602179055508173ffffffffffffffffffffffffffffffffffffffff168173ffffffffffffffffffffffffffffffffffffffff167f8be0079c531659141344cd1fd0a4f28419497f9722a3daafe3b4186f6b6457e060405160405180910390a35050565b828054620001b9906200028a565b90600052602060002090601f016020900481019282620001dd576000855562000229565b82601f10620001f857805160ff191683800117855562000229565b8280016001018555821562000229579182015b82811115620002285782518255916020019190600101906200020b565b5b5090506200023891906200023c565b5090565b5b80821115620002575760008160009055506001016200023d565b5090565b7f4e487b7100000000000000000000000000000000000000000000000000000000600052602260045260246000fd5b60006002820490506001821680620002a357607f821691505b60208210811415620002ba57620002b96200025b565b5b50919050565b61379580620002d06000396000f3fe608060405234801561001057600080fd5b506004361061018e5760003560e01c80638da5cb5b116100de578063d534bd6d11610097578063dec1c90411610071578063dec1c9041461047b578063e985e9c514610497578063f2fde38b146104c7578063fd77c4fa146104e35761018e565b8063d534bd6d14610413578063d64469c51461042f578063d85d3d271461045f5761018e565b80638da5cb5b1461035357806395d89b4114610371578063a22cb4651461038f578063b88d4fde146103ab578063bbe75d79146103c7578063c87b56dd146103e35761018e565b806323b872dd1161014b5780636352211e116101255780636352211e146102cd57806370a08231146102fd578063715018a61461032d5780637e50bc1b146103375761018e565b806323b872dd1461027957806342842e0e1461029557806356f0cb01146102b15761018e565b806301ffc9a71461019357806302b808dd146101c357806306fdde03146101f3578063081812fc14610211578063095ea7b31461024157806309b771dc1461025d575b600080fd5b6101ad60048036038101906101a891906123bf565b610513565b6040516101ba9190612407565b60405180910390f35b6101dd60048036038101906101d89190612480565b610574565b6040516101ea9190612407565b60405180910390f35b6101fb6105ca565b6040516102089190612546565b60405180910390f35b61022b6004803603810190610226919061259e565b61065c565b60405161023891906125da565b60405180910390f35b61025b600480360381019061025691906125f5565b6106a2565b005b6102776004803603810190610272919061276a565b6107ba565b005b610293600480360381019061028e91906127ed565b610808565b005b6102af60048036038101906102aa91906127ed565b610868565b005b6102cb60048036038101906102c69190612480565b610888565b005b6102e760048036038101906102e2919061259e565b6108eb565b6040516102f491906125da565b60405180910390f35b61031760048036038101906103129190612480565b610972565b604051610324919061284f565b60405180910390f35b610335610a2a565b005b610351600480360381019061034c919061286a565b610a3e565b005b61035b610af2565b60405161036891906125da565b60405180910390f35b610379610b1c565b6040516103869190612546565b60405180910390f35b6103a960048036038101906103a491906128d6565b610bae565b005b6103c560048036038101906103c091906129b7565b610bc4565b005b6103e160048036038101906103dc919061286a565b610c26565b005b6103fd60048036038101906103f8919061259e565b610cb5565b60405161040a9190612546565b60405180910390f35b61042d60048036038101906104289190612a3a565b610cc7565b005b6104496004803603810190610444919061259e565b610d0a565b6040516104569190612b67565b60405180910390f35b61047960048036038101906104749190612b89565b610e3a565b005b61049560048036038101906104909190612480565b610ea8565b005b6104b160048036038101906104ac9190612bd2565b610f0b565b6040516104be9190612407565b60405180910390f35b6104e160048036038101906104dc9190612480565b610f9f565b005b6104fd60048036038101906104f89190612480565b611023565b60405161050a9190612407565b60405180910390f35b6000634906490660e01b7bffffffffffffffffffffffffffffffffffffffffffffffffffffffff1916827bffffffffffffffffffffffffffffffffffffffffffffffffffffffff1916148061056d575061056c82611079565b5b9050919050565b6000600c60008373ffffffffffffffffffffffffffffffffffffffff1673ffffffffffffffffffffffffffffffffffffffff16815260200190815260200160002060009054906101000a900460ff169050919050565b6060600080546105d990612c41565b80601f016020809104026020016040519081016040528092919081815260200182805461060590612c41565b80156106525780601f1061062757610100808354040283529160200191610652565b820191906000526020600020905b81548152906001019060200180831161063557829003601f168201915b5050505050905090565b60006106678261115b565b6004600083815260200190815260200160002060009054906101000a900473ffffffffffffffffffffffffffffffffffffffff169050919050565b60006106ad826108eb565b90508073ffffffffffffffffffffffffffffffffffffffff168373ffffffffffffffffffffffffffffffffffffffff16141561071e576040517f08c379a000000000000000000000000000000000000000000000000000000000815260040161071590612ce5565b60405180910390fd5b8073ffffffffffffffffffffffffffffffffffffffff1661073d6111a6565b73ffffffffffffffffffffffffffffffffffffffff16148061076c575061076b816107666111a6565b610f0b565b5b6107ab576040517f08c379a00000000000000000000000000000000000000000000000000000000081526004016107a290612d77565b60405180910390fd5b6107b583836111ae565b505050565b7fd43e8a40da03309987a26f68e7f4d1f7a69bc1ac2fec1f863dc5bbaa8bee1a6b84848484426040516107f1959493929190612d97565b60405180910390a161080281610e3a565b50505050565b6108196108136111a6565b82611267565b610858576040517f08c379a000000000000000000000000000000000000000000000000000000000815260040161084f90612e63565b60405180910390fd5b6108638383836112fc565b505050565b61088383838360405180602001604052806000815250610bc4565b505050565b6108906115f6565b6001600c60008373ffffffffffffffffffffffffffffffffffffffff1673ffffffffffffffffffffffffffffffffffffffff16815260200190815260200160002060006101000a81548160ff02191690831515021790555050565b6000806108f783611674565b9050600073ffffffffffffffffffffffffffffffffffffffff168173ffffffffffffffffffffffffffffffffffffffff161415610969576040517f08c379a000000000000000000000000000000000000000000000000000000000815260040161096090612ecf565b60405180910390fd5b80915050919050565b60008073ffffffffffffffffffffffffffffffffffffffff168273ffffffffffffffffffffffffffffffffffffffff1614156109e3576040517f08c379a00000000000000000000000000000000000000000000000000000000081526004016109da90612f61565b60405180910390fd5b600360008373ffffffffffffffffffffffffffffffffffffffff1673ffffffffffffffffffffffffffffffffffffffff168152602001908152602001600020549050919050565b610a326115f6565b610a3c60006116b1565b565b60096000838152602001908152602001600020819080600181540180825580915050600190039060005260206000200160009091909190916101000a81548173ffffffffffffffffffffffffffffffffffffffff021916908373ffffffffffffffffffffffffffffffffffffffff1602179055507f7ff8d884b9c745cb929ec2157341f55e28f14054ae51c7fa8e9a1d4e1f21b5f582826001604051610ae693929190612fcd565b60405180910390a15050565b6000600760009054906101000a900473ffffffffffffffffffffffffffffffffffffffff16905090565b606060018054610b2b90612c41565b80601f0160208091040260200160405190810160405280929190818152602001828054610b5790612c41565b8015610ba45780601f10610b7957610100808354040283529160200191610ba4565b820191906000526020600020905b815481529060010190602001808311610b8757829003601f168201915b5050505050905090565b610bc0610bb96111a6565b8383611777565b5050565b610bd5610bcf6111a6565b83611267565b610c14576040517f08c379a0000000000000000000000000000000000000000000000000000000008152600401610c0b90612e63565b60405180910390fd5b610c20848484846118e4565b50505050565b80600a600084815260200190815260200160002060006101000a81548173ffffffffffffffffffffffffffffffffffffffff021916908373ffffffffffffffffffffffffffffffffffffffff1602179055507fba7943ca1fe14d2db97e9c49a0f02fa849b5404f0d10c397bdff0e5a6fae837e8282604051610ca9929190613017565b60405180910390a15050565b6060610cc082611940565b9050919050565b7f7ff8d884b9c745cb929ec2157341f55e28f14054ae51c7fa8e9a1d4e1f21b5f58383600084604051610cfd9493929190613040565b60405180910390a1505050565b606060006009600084815260200190815260200160002080549050905060008167ffffffffffffffff811115610d4357610d4261263f565b5b604051908082528060200260200182016040528015610d715781602001602082028036833780820191505090505b50905060005b82811015610e2f57600960008681526020019081526020016000208181548110610da457610da361308c565b5b9060005260206000200160009054906101000a900473ffffffffffffffffffffffffffffffffffffffff16828281518110610de257610de161308c565b5b602002602001019073ffffffffffffffffffffffffffffffffffffffff16908173ffffffffffffffffffffffffffffffffffffffff16815250508080610e27906130ea565b915050610d77565b508092505050919050565b610e4633600854611a53565b610e5260085482611a71565b7f84fedafd9490d60ff476d007409fc8709ce33b506d702cddbf1e37b1dc5fc2ef81600854604051610e85929190613133565b60405180910390a160086000815480929190610ea0906130ea565b919050555050565b610eb06115f6565b6001600b60008373ffffffffffffffffffffffffffffffffffffffff1673ffffffffffffffffffffffffffffffffffffffff16815260200190815260200160002060006101000a81548160ff02191690831515021790555050565b6000600560008473ffffffffffffffffffffffffffffffffffffffff1673ffffffffffffffffffffffffffffffffffffffff16815260200190815260200160002060008373ffffffffffffffffffffffffffffffffffffffff1673ffffffffffffffffffffffffffffffffffffffff16815260200190815260200160002060009054906101000a900460ff16905092915050565b610fa76115f6565b600073ffffffffffffffffffffffffffffffffffffffff168173ffffffffffffffffffffffffffffffffffffffff161415611017576040517f08c379a000000000000000000000000000000000000000000000000000000000815260040161100e906131d5565b60405180910390fd5b611020816116b1565b50565b6000600c60008373ffffffffffffffffffffffffffffffffffffffff1673ffffffffffffffffffffffffffffffffffffffff16815260200190815260200160002060009054906101000a900460ff169050919050565b60007f80ac58cd000000000000000000000000000000000000000000000000000000007bffffffffffffffffffffffffffffffffffffffffffffffffffffffff1916827bffffffffffffffffffffffffffffffffffffffffffffffffffffffff1916148061114457507f5b5e139f000000000000000000000000000000000000000000000000000000007bffffffffffffffffffffffffffffffffffffffffffffffffffffffff1916827bffffffffffffffffffffffffffffffffffffffffffffffffffffffff1916145b80611154575061115382611b1c565b5b9050919050565b61116481611b86565b6111a3576040517f08c379a000000000000000000000000000000000000000000000000000000000815260040161119a90612ecf565b60405180910390fd5b50565b600033905090565b816004600083815260200190815260200160002060006101000a81548173ffffffffffffffffffffffffffffffffffffffff021916908373ffffffffffffffffffffffffffffffffffffffff160217905550808273ffffffffffffffffffffffffffffffffffffffff16611221836108eb565b73ffffffffffffffffffffffffffffffffffffffff167f8c5be1e5ebec7d5bd14f71427d1e84f3dd0314c0f7b2291e5b200ac8c7c3b92560405160405180910390a45050565b600080611273836108eb565b90508073ffffffffffffffffffffffffffffffffffffffff168473ffffffffffffffffffffffffffffffffffffffff1614806112b557506112b48185610f0b565b5b806112f357508373ffffffffffffffffffffffffffffffffffffffff166112db8461065c565b73ffffffffffffffffffffffffffffffffffffffff16145b91505092915050565b8273ffffffffffffffffffffffffffffffffffffffff1661131c826108eb565b73ffffffffffffffffffffffffffffffffffffffff1614611372576040517f08c379a000000000000000000000000000000000000000000000000000000000815260040161136990613267565b60405180910390fd5b600073ffffffffffffffffffffffffffffffffffffffff168273ffffffffffffffffffffffffffffffffffffffff1614156113e2576040517f08c379a00000000000000000000000000000000000000000000000000000000081526004016113d9906132f9565b60405180910390fd5b6113ef8383836001611bc7565b8273ffffffffffffffffffffffffffffffffffffffff1661140f826108eb565b73ffffffffffffffffffffffffffffffffffffffff1614611465576040517f08c379a000000000000000000000000000000000000000000000000000000000815260040161145c90613267565b60405180910390fd5b6004600082815260200190815260200160002060006101000a81549073ffffffffffffffffffffffffffffffffffffffff02191690556001600360008573ffffffffffffffffffffffffffffffffffffffff1673ffffffffffffffffffffffffffffffffffffffff168152602001908152602001600020600082825403925050819055506001600360008473ffffffffffffffffffffffffffffffffffffffff1673ffffffffffffffffffffffffffffffffffffffff16815260200190815260200160002060008282540192505081905550816002600083815260200190815260200160002060006101000a81548173ffffffffffffffffffffffffffffffffffffffff021916908373ffffffffffffffffffffffffffffffffffffffff160217905550808273ffffffffffffffffffffffffffffffffffffffff168473ffffffffffffffffffffffffffffffffffffffff167fddf252ad1be2c89b69c2b068fc378daa952ba7f163c4a11628f55a4df523b3ef60405160405180910390a46115f18383836001611bcd565b505050565b6115fe6111a6565b73ffffffffffffffffffffffffffffffffffffffff1661161c610af2565b73ffffffffffffffffffffffffffffffffffffffff1614611672576040517f08c379a000000000000000000000000000000000000000000000000000000000815260040161166990613365565b60405180910390fd5b565b60006002600083815260200190815260200160002060009054906101000a900473ffffffffffffffffffffffffffffffffffffffff169050919050565b6000600760009054906101000a900473ffffffffffffffffffffffffffffffffffffffff16905081600760006101000a81548173ffffffffffffffffffffffffffffffffffffffff021916908373ffffffffffffffffffffffffffffffffffffffff1602179055508173ffffffffffffffffffffffffffffffffffffffff168173ffffffffffffffffffffffffffffffffffffffff167f8be0079c531659141344cd1fd0a4f28419497f9722a3daafe3b4186f6b6457e060405160405180910390a35050565b8173ffffffffffffffffffffffffffffffffffffffff168373ffffffffffffffffffffffffffffffffffffffff1614156117e6576040517f08c379a00000000000000000000000000000000000000000000000000000000081526004016117dd906133d1565b60405180910390fd5b80600560008573ffffffffffffffffffffffffffffffffffffffff1673ffffffffffffffffffffffffffffffffffffffff16815260200190815260200160002060008473ffffffffffffffffffffffffffffffffffffffff1673ffffffffffffffffffffffffffffffffffffffff16815260200190815260200160002060006101000a81548160ff0219169083151502179055508173ffffffffffffffffffffffffffffffffffffffff168373ffffffffffffffffffffffffffffffffffffffff167f17307eab39ab6107e8899845ad3d59bd9653f200f220920489ca2b5937696c31836040516118d79190612407565b60405180910390a3505050565b6118ef8484846112fc565b6118fb84848484611bd3565b61193a576040517f08c379a000000000000000000000000000000000000000000000000000000000815260040161193190613463565b60405180910390fd5b50505050565b606061194b8261115b565b600060066000848152602001908152602001600020805461196b90612c41565b80601f016020809104026020016040519081016040528092919081815260200182805461199790612c41565b80156119e45780601f106119b9576101008083540402835291602001916119e4565b820191906000526020600020905b8154815290600101906020018083116119c757829003601f168201915b5050505050905060006119f5611d6a565b9050600081511415611a0b578192505050611a4e565b600082511115611a40578082604051602001611a289291906134bf565b60405160208183030381529060405292505050611a4e565b611a4984611d81565b925050505b919050565b611a6d828260405180602001604052806000815250611de9565b5050565b611a7a82611b86565b611ab9576040517f08c379a0000000000000000000000000000000000000000000000000000000008152600401611ab090613555565b60405180910390fd5b80600660008481526020019081526020016000209080519060200190611ae09291906122b0565b507ff8e1a15aba9398e019f0b49df1a4fde98ee17ae345cb5f6b5e2c27f5033e8ce782604051611b10919061284f565b60405180910390a15050565b60007f01ffc9a7000000000000000000000000000000000000000000000000000000007bffffffffffffffffffffffffffffffffffffffffffffffffffffffff1916827bffffffffffffffffffffffffffffffffffffffffffffffffffffffff1916149050919050565b60008073ffffffffffffffffffffffffffffffffffffffff16611ba883611674565b73ffffffffffffffffffffffffffffffffffffffff1614159050919050565b50505050565b50505050565b6000611bf48473ffffffffffffffffffffffffffffffffffffffff16611e44565b15611d5d578373ffffffffffffffffffffffffffffffffffffffff1663150b7a02611c1d6111a6565b8786866040518563ffffffff1660e01b8152600401611c3f94939291906135ca565b602060405180830381600087803b158015611c5957600080fd5b505af1925050508015611c8a57506040513d601f19601f82011682018060405250810190611c87919061362b565b60015b611d0d573d8060008114611cba576040519150601f19603f3d011682016040523d82523d6000602084013e611cbf565b606091505b50600081511415611d05576040517f08c379a0000000000000000000000000000000000000000000000000000000008152600401611cfc90613463565b60405180910390fd5b805181602001fd5b63150b7a0260e01b7bffffffffffffffffffffffffffffffffffffffffffffffffffffffff1916817bffffffffffffffffffffffffffffffffffffffffffffffffffffffff191614915050611d62565b600190505b949350505050565b606060405180602001604052806000815250905090565b6060611d8c8261115b565b6000611d96611d6a565b90506000815111611db65760405180602001604052806000815250611de1565b80611dc084611e67565b604051602001611dd19291906134bf565b6040516020818303038152906040525b915050919050565b611df38383611f3f565b611e006000848484611bd3565b611e3f576040517f08c379a0000000000000000000000000000000000000000000000000000000008152600401611e3690613463565b60405180910390fd5b505050565b6000808273ffffffffffffffffffffffffffffffffffffffff163b119050919050565b606060006001611e768461215d565b01905060008167ffffffffffffffff811115611e9557611e9461263f565b5b6040519080825280601f01601f191660200182016040528015611ec75781602001600182028036833780820191505090505b509050600082602001820190505b600115611f34578080600190039150507f3031323334353637383961626364656600000000000000000000000000000000600a86061a8153600a8581611f1e57611f1d613658565b5b0494506000851415611f2f57611f34565b611ed5565b819350505050919050565b600073ffffffffffffffffffffffffffffffffffffffff168273ffffffffffffffffffffffffffffffffffffffff161415611faf576040517f08c379a0000000000000000000000000000000000000000000000000000000008152600401611fa6906136d3565b60405180910390fd5b611fb881611b86565b15611ff8576040517f08c379a0000000000000000000000000000000000000000000000000000000008152600401611fef9061373f565b60405180910390fd5b612006600083836001611bc7565b61200f81611b86565b1561204f576040517f08c379a00000000000000000000000000000000000000000000000000000000081526004016120469061373f565b60405180910390fd5b6001600360008473ffffffffffffffffffffffffffffffffffffffff1673ffffffffffffffffffffffffffffffffffffffff16815260200190815260200160002060008282540192505081905550816002600083815260200190815260200160002060006101000a81548173ffffffffffffffffffffffffffffffffffffffff021916908373ffffffffffffffffffffffffffffffffffffffff160217905550808273ffffffffffffffffffffffffffffffffffffffff16600073ffffffffffffffffffffffffffffffffffffffff167fddf252ad1be2c89b69c2b068fc378daa952ba7f163c4a11628f55a4df523b3ef60405160405180910390a4612159600083836001611bcd565b5050565b600080600090507a184f03e93ff9f4daa797ed6e38ed64bf6a1f01000000000000000083106121bb577a184f03e93ff9f4daa797ed6e38ed64bf6a1f01000000000000000083816121b1576121b0613658565b5b0492506040810190505b6d04ee2d6d415b85acef810000000083106121f8576d04ee2d6d415b85acef810000000083816121ee576121ed613658565b5b0492506020810190505b662386f26fc10000831061222757662386f26fc10000838161221d5761221c613658565b5b0492506010810190505b6305f5e1008310612250576305f5e100838161224657612245613658565b5b0492506008810190505b612710831061227557612710838161226b5761226a613658565b5b0492506004810190505b60648310612298576064838161228e5761228d613658565b5b0492506002810190505b600a83106122a7576001810190505b80915050919050565b8280546122bc90612c41565b90600052602060002090601f0160209004810192826122de5760008555612325565b82601f106122f757805160ff1916838001178555612325565b82800160010185558215612325579182015b82811115612324578251825591602001919060010190612309565b5b5090506123329190612336565b5090565b5b8082111561234f576000816000905550600101612337565b5090565b6000604051905090565b600080fd5b600080fd5b60007fffffffff0000000000000000000000000000000000000000000000000000000082169050919050565b61239c81612367565b81146123a757600080fd5b50565b6000813590506123b981612393565b92915050565b6000602082840312156123d5576123d461235d565b5b60006123e3848285016123aa565b91505092915050565b60008115159050919050565b612401816123ec565b82525050565b600060208201905061241c60008301846123f8565b92915050565b600073ffffffffffffffffffffffffffffffffffffffff82169050919050565b600061244d82612422565b9050919050565b61245d81612442565b811461246857600080fd5b50565b60008135905061247a81612454565b92915050565b6000602082840312156124965761249561235d565b5b60006124a48482850161246b565b91505092915050565b600081519050919050565b600082825260208201905092915050565b60005b838110156124e75780820151818401526020810190506124cc565b838111156124f6576000848401525b50505050565b6000601f19601f8301169050919050565b6000612518826124ad565b61252281856124b8565b93506125328185602086016124c9565b61253b816124fc565b840191505092915050565b60006020820190508181036000830152612560818461250d565b905092915050565b6000819050919050565b61257b81612568565b811461258657600080fd5b50565b60008135905061259881612572565b92915050565b6000602082840312156125b4576125b361235d565b5b60006125c284828501612589565b91505092915050565b6125d481612442565b82525050565b60006020820190506125ef60008301846125cb565b92915050565b6000806040838503121561260c5761260b61235d565b5b600061261a8582860161246b565b925050602061262b85828601612589565b9150509250929050565b600080fd5b600080fd5b7f4e487b7100000000000000000000000000000000000000000000000000000000600052604160045260246000fd5b612677826124fc565b810181811067ffffffffffffffff821117156126965761269561263f565b5b80604052505050565b60006126a9612353565b90506126b5828261266e565b919050565b600067ffffffffffffffff8211156126d5576126d461263f565b5b6126de826124fc565b9050602081019050919050565b82818337600083830152505050565b600061270d612708846126ba565b61269f565b9050828152602081018484840111156127295761272861263a565b5b6127348482856126eb565b509392505050565b600082601f83011261275157612750612635565b5b81356127618482602086016126fa565b91505092915050565b600080600080608085870312156127845761278361235d565b5b600061279287828801612589565b94505060206127a387828801612589565b93505060406127b487828801612589565b925050606085013567ffffffffffffffff8111156127d5576127d4612362565b5b6127e18782880161273c565b91505092959194509250565b6000806000606084860312156128065761280561235d565b5b60006128148682870161246b565b93505060206128258682870161246b565b925050604061283686828701612589565b9150509250925092565b61284981612568565b82525050565b60006020820190506128646000830184612840565b92915050565b600080604083850312156128815761288061235d565b5b600061288f85828601612589565b92505060206128a08582860161246b565b9150509250929050565b6128b3816123ec565b81146128be57600080fd5b50565b6000813590506128d0816128aa565b92915050565b600080604083850312156128ed576128ec61235d565b5b60006128fb8582860161246b565b925050602061290c858286016128c1565b9150509250929050565b600067ffffffffffffffff8211156129315761293061263f565b5b61293a826124fc565b9050602081019050919050565b600061295a61295584612916565b61269f565b9050828152602081018484840111156129765761297561263a565b5b6129818482856126eb565b509392505050565b600082601f83011261299e5761299d612635565b5b81356129ae848260208601612947565b91505092915050565b600080600080608085870312156129d1576129d061235d565b5b60006129df8782880161246b565b94505060206129f08782880161246b565b9350506040612a0187828801612589565b925050606085013567ffffffffffffffff811115612a2257612a21612362565b5b612a2e87828801612989565b91505092959194509250565b600080600060608486031215612a5357612a5261235d565b5b6000612a6186828701612589565b9350506020612a728682870161246b565b925050604084013567ffffffffffffffff811115612a9357612a92612362565b5b612a9f8682870161273c565b9150509250925092565b600081519050919050565b600082825260208201905092915050565b6000819050602082019050919050565b612ade81612442565b82525050565b6000612af08383612ad5565b60208301905092915050565b6000602082019050919050565b6000612b1482612aa9565b612b1e8185612ab4565b9350612b2983612ac5565b8060005b83811015612b5a578151612b418882612ae4565b9750612b4c83612afc565b925050600181019050612b2d565b5085935050505092915050565b60006020820190508181036000830152612b818184612b09565b905092915050565b600060208284031215612b9f57612b9e61235d565b5b600082013567ffffffffffffffff811115612bbd57612bbc612362565b5b612bc98482850161273c565b91505092915050565b60008060408385031215612be957612be861235d565b5b6000612bf78582860161246b565b9250506020612c088582860161246b565b9150509250929050565b7f4e487b7100000000000000000000000000000000000000000000000000000000600052602260045260246000fd5b60006002820490506001821680612c5957607f821691505b60208210811415612c6d57612c6c612c12565b5b50919050565b7f4552433732313a20617070726f76616c20746f2063757272656e74206f776e6560008201527f7200000000000000000000000000000000000000000000000000000000000000602082015250565b6000612ccf6021836124b8565b9150612cda82612c73565b604082019050919050565b60006020820190508181036000830152612cfe81612cc2565b9050919050565b7f4552433732313a20617070726f76652063616c6c6572206973206e6f7420746f60008201527f6b656e206f776e6572206f7220617070726f76656420666f7220616c6c000000602082015250565b6000612d61603d836124b8565b9150612d6c82612d05565b604082019050919050565b60006020820190508181036000830152612d9081612d54565b9050919050565b600060a082019050612dac6000830188612840565b612db96020830187612840565b612dc66040830186612840565b8181036060830152612dd8818561250d565b9050612de76080830184612840565b9695505050505050565b7f4552433732313a2063616c6c6572206973206e6f7420746f6b656e206f776e6560008201527f72206f7220617070726f76656400000000000000000000000000000000000000602082015250565b6000612e4d602d836124b8565b9150612e5882612df1565b604082019050919050565b60006020820190508181036000830152612e7c81612e40565b9050919050565b7f4552433732313a20696e76616c696420746f6b656e2049440000000000000000600082015250565b6000612eb96018836124b8565b9150612ec482612e83565b602082019050919050565b60006020820190508181036000830152612ee881612eac565b9050919050565b7f4552433732313a2061646472657373207a65726f206973206e6f74206120766160008201527f6c6964206f776e65720000000000000000000000000000000000000000000000602082015250565b6000612f4b6029836124b8565b9150612f5682612eef565b604082019050919050565b60006020820190508181036000830152612f7a81612f3e565b9050919050565b7f6163636570740000000000000000000000000000000000000000000000000000600082015250565b6000612fb76006836124b8565b9150612fc282612f81565b602082019050919050565b6000608082019050612fe26000830186612840565b612fef60208301856125cb565b612ffc60408301846123f8565b818103606083015261300d81612faa565b9050949350505050565b600060408201905061302c6000830185612840565b61303960208301846125cb565b9392505050565b60006080820190506130556000830187612840565b61306260208301866125cb565b61306f60408301856123f8565b8181036060830152613081818461250d565b905095945050505050565b7f4e487b7100000000000000000000000000000000000000000000000000000000600052603260045260246000fd5b7f4e487b7100000000000000000000000000000000000000000000000000000000600052601160045260246000fd5b60006130f582612568565b91507fffffffffffffffffffffffffffffffffffffffffffffffffffffffffffffffff821415613128576131276130bb565b5b600182019050919050565b6000604082019050818103600083015261314d818561250d565b905061315c6020830184612840565b9392505050565b7f4f776e61626c653a206e6577206f776e657220697320746865207a65726f206160008201527f6464726573730000000000000000000000000000000000000000000000000000602082015250565b60006131bf6026836124b8565b91506131ca82613163565b604082019050919050565b600060208201905081810360008301526131ee816131b2565b9050919050565b7f4552433732313a207472616e736665722066726f6d20696e636f72726563742060008201527f6f776e6572000000000000000000000000000000000000000000000000000000602082015250565b60006132516025836124b8565b915061325c826131f5565b604082019050919050565b6000602082019050818103600083015261328081613244565b9050919050565b7f4552433732313a207472616e7366657220746f20746865207a65726f2061646460008201527f7265737300000000000000000000000000000000000000000000000000000000602082015250565b60006132e36024836124b8565b91506132ee82613287565b604082019050919050565b60006020820190508181036000830152613312816132d6565b9050919050565b7f4f776e61626c653a2063616c6c6572206973206e6f7420746865206f776e6572600082015250565b600061334f6020836124b8565b915061335a82613319565b602082019050919050565b6000602082019050818103600083015261337e81613342565b9050919050565b7f4552433732313a20617070726f766520746f2063616c6c657200000000000000600082015250565b60006133bb6019836124b8565b91506133c682613385565b602082019050919050565b600060208201905081810360008301526133ea816133ae565b9050919050565b7f4552433732313a207472616e7366657220746f206e6f6e20455243373231526560008201527f63656976657220696d706c656d656e7465720000000000000000000000000000602082015250565b600061344d6032836124b8565b9150613458826133f1565b604082019050919050565b6000602082019050818103600083015261347c81613440565b9050919050565b600081905092915050565b6000613499826124ad565b6134a38185613483565b93506134b38185602086016124c9565b80840191505092915050565b60006134cb828561348e565b91506134d7828461348e565b91508190509392505050565b7f45524337323155524953746f726167653a2055524920736574206f66206e6f6e60008201527f6578697374656e7420746f6b656e000000000000000000000000000000000000602082015250565b600061353f602e836124b8565b915061354a826134e3565b604082019050919050565b6000602082019050818103600083015261356e81613532565b9050919050565b600081519050919050565b600082825260208201905092915050565b600061359c82613575565b6135a68185613580565b93506135b68185602086016124c9565b6135bf816124fc565b840191505092915050565b60006080820190506135df60008301876125cb565b6135ec60208301866125cb565b6135f96040830185612840565b818103606083015261360b8184613591565b905095945050505050565b60008151905061362581612393565b92915050565b6000602082840312156136415761364061235d565b5b600061364f84828501613616565b91505092915050565b7f4e487b7100000000000000000000000000000000000000000000000000000000600052601260045260246000fd5b7f4552433732313a206d696e7420746f20746865207a65726f2061646472657373600082015250565b60006136bd6020836124b8565b91506136c882613687565b602082019050919050565b600060208201905081810360008301526136ec816136b0565b9050919050565b7f4552433732313a20746f6b656e20616c7265616479206d696e74656400000000600082015250565b6000613729601c836124b8565b9150613734826136f3565b602082019050919050565b600060208201905081810360008301526137588161371c565b905091905056fea2646970667358221220f66a865bfd7fb6cda5c574669298e9b12fd00523a97dc518c8d8a7c08e18c10064736f6c63430008090033",
    "linkReferences": {},
    "deployedLinkReferences": {}
}